{
  "contractName": "Crash",
  "abi": [
    {
      "inputs": [],
      "stateMutability": "nonpayable",
      "type": "constructor"
    },
    {
      "anonymous": false,
      "inputs": [
        {
          "indexed": true,
          "internalType": "address",
          "name": "previousOwner",
          "type": "address"
        },
        {
          "indexed": true,
          "internalType": "address",
          "name": "newOwner",
          "type": "address"
        }
      ],
      "name": "OwnershipTransferred",
      "type": "event"
    },
    {
      "inputs": [
        {
          "internalType": "address",
          "name": "",
          "type": "address"
        }
      ],
      "name": "betAmount",
      "outputs": [
        {
          "internalType": "uint256",
          "name": "",
          "type": "uint256"
        }
      ],
      "stateMutability": "view",
      "type": "function",
      "constant": true
    },
    {
      "inputs": [],
      "name": "gameToken",
      "outputs": [
        {
          "internalType": "address",
          "name": "",
          "type": "address"
        }
      ],
      "stateMutability": "view",
      "type": "function",
      "constant": true
    },
    {
      "inputs": [],
      "name": "gameWallet",
      "outputs": [
        {
          "internalType": "address payable",
          "name": "",
          "type": "address"
        }
      ],
      "stateMutability": "view",
      "type": "function",
      "constant": true
    },
    {
      "inputs": [],
      "name": "houseFeeWallet",
      "outputs": [
        {
          "internalType": "address payable",
          "name": "",
          "type": "address"
        }
      ],
      "stateMutability": "view",
      "type": "function",
      "constant": true
    },
    {
      "inputs": [],
      "name": "owner",
      "outputs": [
        {
          "internalType": "address",
          "name": "",
          "type": "address"
        }
      ],
      "stateMutability": "view",
      "type": "function",
      "constant": true
    },
    {
      "inputs": [
        {
          "internalType": "uint256",
          "name": "",
          "type": "uint256"
        }
      ],
      "name": "players",
      "outputs": [
        {
          "internalType": "address",
          "name": "",
          "type": "address"
        }
      ],
      "stateMutability": "view",
      "type": "function",
      "constant": true
    },
    {
      "inputs": [
        {
          "internalType": "address",
          "name": "newOwner",
          "type": "address"
        }
      ],
      "name": "transferOwnership",
      "outputs": [],
      "stateMutability": "nonpayable",
      "type": "function"
    },
    {
      "inputs": [
        {
          "internalType": "uint256",
          "name": "amount",
          "type": "uint256"
        },
        {
          "internalType": "address",
          "name": "token",
          "type": "address"
        }
      ],
      "name": "placeBet",
      "outputs": [],
      "stateMutability": "nonpayable",
      "type": "function"
    },
    {
      "inputs": [
        {
          "internalType": "address",
          "name": "account",
          "type": "address"
        }
      ],
      "name": "getBetAmount",
      "outputs": [
        {
          "internalType": "uint256",
          "name": "",
          "type": "uint256"
        }
      ],
      "stateMutability": "view",
      "type": "function",
      "constant": true
    },
    {
      "inputs": [
        {
          "internalType": "address payable",
          "name": "wallet",
          "type": "address"
        }
      ],
      "name": "setGameWalletAddress",
      "outputs": [],
      "stateMutability": "nonpayable",
      "type": "function"
    },
    {
      "inputs": [
        {
          "internalType": "address payable",
          "name": "wallet",
          "type": "address"
        }
      ],
      "name": "setHouseFeeWalletAddress",
      "outputs": [],
      "stateMutability": "nonpayable",
      "type": "function"
    },
    {
      "inputs": [
        {
          "internalType": "uint256",
          "name": "feePercentage",
          "type": "uint256"
        }
      ],
      "name": "setHouseFee",
      "outputs": [],
      "stateMutability": "nonpayable",
      "type": "function"
    },
    {
      "inputs": [
        {
          "internalType": "address",
          "name": "tokenAddress",
          "type": "address"
        }
      ],
      "name": "setGameToken",
      "outputs": [],
      "stateMutability": "nonpayable",
      "type": "function"
    }
  ],
  "bytecode": "0x6080604052600160045534801561001557600080fd5b50336000806101000a81548173ffffffffffffffffffffffffffffffffffffffff021916908373ffffffffffffffffffffffffffffffffffffffff16021790555060008054906101000a900473ffffffffffffffffffffffffffffffffffffffff1673ffffffffffffffffffffffffffffffffffffffff16600073ffffffffffffffffffffffffffffffffffffffff167f8be0079c531659141344cd1fd0a4f28419497f9722a3daafe3b4186f6b6457e060405160405180910390a3734f2c954acad386547c64c6b36e569c0f01765e62600160006101000a81548173ffffffffffffffffffffffffffffffffffffffff021916908373ffffffffffffffffffffffffffffffffffffffff160217905550734854ebc0e6a0e81555d220f2fc1fd4cc775397d9600260006101000a81548173ffffffffffffffffffffffffffffffffffffffff021916908373ffffffffffffffffffffffffffffffffffffffff1602179055506112818061018a6000396000f3fe608060405234801561001057600080fd5b50600436106100cf5760003560e01c806380d29e661161008c578063c3dfdae611610066578063c3dfdae6146101fc578063e1fff2371461021a578063f2fde38b14610238578063f71d96cb14610254576100cf565b806380d29e66146101a65780638da5cb5b146101c2578063bc1b6062146101e0576100cf565b8063183fc553146100d457806334aa7e00146100f057806348fac680146101205780635a09f2f41461013e5780635f98dec91461015a57806366e3c66814610176575b600080fd5b6100ee60048036038101906100e99190610c7f565b610284565b005b61010a60048036038101906101059190610c52565b6103b4565b6040516101179190610efb565b60405180910390f35b6101286103cc565b6040516101359190610e29565b60405180910390f35b61015860048036038101906101539190610cd9565b6103f2565b005b610174600480360381019061016f9190610c7f565b610478565b005b610190600480360381019061018b9190610c52565b6105a8565b60405161019d9190610efb565b60405180910390f35b6101c060048036038101906101bb9190610c52565b6105f1565b005b6101ca610721565b6040516101d79190610e0e565b60405180910390f35b6101fa60048036038101906101f59190610d06565b61074a565b005b610204610955565b6040516102119190610e0e565b60405180910390f35b61022261097b565b60405161022f9190610e29565b60405180910390f35b610252600480360381019061024d9190610c52565b6109a1565b005b61026e60048036038101906102699190610cd9565b610b4a565b60405161027b9190610e0e565b60405180910390f35b61028c610b89565b73ffffffffffffffffffffffffffffffffffffffff166102aa610721565b73ffffffffffffffffffffffffffffffffffffffff1614610300576040517f08c379a00000000000000000000000000000000000000000000000000000000081526004016102f790610ebb565b60405180910390fd5b600073ffffffffffffffffffffffffffffffffffffffff168173ffffffffffffffffffffffffffffffffffffffff161415610370576040517f08c379a000000000000000000000000000000000000000000000000000000000815260040161036790610e9b565b60405180910390fd5b80600160006101000a81548173ffffffffffffffffffffffffffffffffffffffff021916908373ffffffffffffffffffffffffffffffffffffffff16021790555050565b60056020528060005260406000206000915090505481565b600160009054906101000a900473ffffffffffffffffffffffffffffffffffffffff1681565b6103fa610b89565b73ffffffffffffffffffffffffffffffffffffffff16610418610721565b73ffffffffffffffffffffffffffffffffffffffff161461046e576040517f08c379a000000000000000000000000000000000000000000000000000000000815260040161046590610ebb565b60405180910390fd5b8060048190555050565b610480610b89565b73ffffffffffffffffffffffffffffffffffffffff1661049e610721565b73ffffffffffffffffffffffffffffffffffffffff16146104f4576040517f08c379a00000000000000000000000000000000000000000000000000000000081526004016104eb90610ebb565b60405180910390fd5b600073ffffffffffffffffffffffffffffffffffffffff168173ffffffffffffffffffffffffffffffffffffffff161415610564576040517f08c379a000000000000000000000000000000000000000000000000000000000815260040161055b90610e9b565b60405180910390fd5b80600260006101000a81548173ffffffffffffffffffffffffffffffffffffffff021916908373ffffffffffffffffffffffffffffffffffffffff16021790555050565b6000600560008373ffffffffffffffffffffffffffffffffffffffff1673ffffffffffffffffffffffffffffffffffffffff168152602001908152602001600020549050919050565b6105f9610b89565b73ffffffffffffffffffffffffffffffffffffffff16610617610721565b73ffffffffffffffffffffffffffffffffffffffff161461066d576040517f08c379a000000000000000000000000000000000000000000000000000000000815260040161066490610ebb565b60405180910390fd5b600073ffffffffffffffffffffffffffffffffffffffff168173ffffffffffffffffffffffffffffffffffffffff1614156106dd576040517f08c379a00000000000000000000000000000000000000000000000000000000081526004016106d490610edb565b60405180910390fd5b80600360006101000a81548173ffffffffffffffffffffffffffffffffffffffff021916908373ffffffffffffffffffffffffffffffffffffffff16021790555050565b60008060009054906101000a900473ffffffffffffffffffffffffffffffffffffffff16905090565b60006107956103e861078761076b600a600454610b9190919063ffffffff16565b6103e86107789190610fb2565b86610b9190919063ffffffff16565b610bd690919063ffffffff16565b9050600081846107a59190610fb2565b905083600560003373ffffffffffffffffffffffffffffffffffffffff1673ffffffffffffffffffffffffffffffffffffffff168152602001908152602001600020819055508273ffffffffffffffffffffffffffffffffffffffff166323b872dd33600260009054906101000a900473ffffffffffffffffffffffffffffffffffffffff16856040518463ffffffff1660e01b815260040161084a93929190610e44565b602060405180830381600087803b15801561086457600080fd5b505af1158015610878573d6000803e3d6000fd5b505050506040513d601f19601f8201168201806040525081019061089c9190610cac565b508273ffffffffffffffffffffffffffffffffffffffff166323b872dd33600160009054906101000a900473ffffffffffffffffffffffffffffffffffffffff16846040518463ffffffff1660e01b81526004016108fc93929190610e44565b602060405180830381600087803b15801561091657600080fd5b505af115801561092a573d6000803e3d6000fd5b505050506040513d601f19601f8201168201806040525081019061094e9190610cac565b5050505050565b600360009054906101000a900473ffffffffffffffffffffffffffffffffffffffff1681565b600260009054906101000a900473ffffffffffffffffffffffffffffffffffffffff1681565b6109a9610b89565b73ffffffffffffffffffffffffffffffffffffffff166109c7610721565b73ffffffffffffffffffffffffffffffffffffffff1614610a1d576040517f08c379a0000000000000000000000000000000000000000000000000000000008152600401610a1490610ebb565b60405180910390fd5b600073ffffffffffffffffffffffffffffffffffffffff168173ffffffffffffffffffffffffffffffffffffffff161415610a8d576040517f08c379a0000000000000000000000000000000000000000000000000000000008152600401610a8490610e7b565b60405180910390fd5b8073ffffffffffffffffffffffffffffffffffffffff1660008054906101000a900473ffffffffffffffffffffffffffffffffffffffff1673ffffffffffffffffffffffffffffffffffffffff167f8be0079c531659141344cd1fd0a4f28419497f9722a3daafe3b4186f6b6457e060405160405180910390a3806000806101000a81548173ffffffffffffffffffffffffffffffffffffffff021916908373ffffffffffffffffffffffffffffffffffffffff16021790555050565b60068181548110610b5a57600080fd5b906000526020600020016000915054906101000a900473ffffffffffffffffffffffffffffffffffffffff1681565b600033905090565b600080831415610ba45760009050610bd0565b60008284610bb29190610f58565b9050828482610bc19190610f27565b14610bcb57600080fd5b809150505b92915050565b6000808211610be457600080fd5b60008284610bf29190610f27565b90508091505092915050565b600081359050610c0d816111ef565b92915050565b600081359050610c2281611206565b92915050565b600081519050610c378161121d565b92915050565b600081359050610c4c81611234565b92915050565b600060208284031215610c6857610c676110d4565b5b6000610c7684828501610bfe565b91505092915050565b600060208284031215610c9557610c946110d4565b5b6000610ca384828501610c13565b91505092915050565b600060208284031215610cc257610cc16110d4565b5b6000610cd084828501610c28565b91505092915050565b600060208284031215610cef57610cee6110d4565b5b6000610cfd84828501610c3d565b91505092915050565b60008060408385031215610d1d57610d1c6110d4565b5b6000610d2b85828601610c3d565b9250506020610d3c85828601610bfe565b9150509250929050565b610d4f81611040565b82525050565b610d5e81610ff8565b82525050565b610d6d81610fe6565b82525050565b6000610d80602683610f16565b9150610d8b826110d9565b604082019050919050565b6000610da3602483610f16565b9150610dae82611128565b604082019050919050565b6000610dc6602083610f16565b9150610dd182611177565b602082019050919050565b6000610de9602283610f16565b9150610df4826111a0565b604082019050919050565b610e0881611036565b82525050565b6000602082019050610e236000830184610d64565b92915050565b6000602082019050610e3e6000830184610d55565b92915050565b6000606082019050610e596000830186610d64565b610e666020830185610d46565b610e736040830184610dff565b949350505050565b60006020820190508181036000830152610e9481610d73565b9050919050565b60006020820190508181036000830152610eb481610d96565b9050919050565b60006020820190508181036000830152610ed481610db9565b9050919050565b60006020820190508181036000830152610ef481610ddc565b9050919050565b6000602082019050610f106000830184610dff565b92915050565b600082825260208201905092915050565b6000610f3282611036565b9150610f3d83611036565b925082610f4d57610f4c6110a5565b5b828204905092915050565b6000610f6382611036565b9150610f6e83611036565b9250817fffffffffffffffffffffffffffffffffffffffffffffffffffffffffffffffff0483118215151615610fa757610fa6611076565b5b828202905092915050565b6000610fbd82611036565b9150610fc883611036565b925082821015610fdb57610fda611076565b5b828203905092915050565b6000610ff182611016565b9050919050565b600061100382611016565b9050919050565b60008115159050919050565b600073ffffffffffffffffffffffffffffffffffffffff82169050919050565b6000819050919050565b600061104b82611052565b9050919050565b600061105d82611064565b9050919050565b600061106f82611016565b9050919050565b7f4e487b7100000000000000000000000000000000000000000000000000000000600052601160045260246000fd5b7f4e487b7100000000000000000000000000000000000000000000000000000000600052601260045260246000fd5b600080fd5b7f4f776e61626c653a206e6577206f776e657220697320746865207a65726f206160008201527f6464726573730000000000000000000000000000000000000000000000000000602082015250565b7f4e65772067616d652077616c6c657420697320746865207a65726f206164647260008201527f6573732e00000000000000000000000000000000000000000000000000000000602082015250565b7f4f776e61626c653a2063616c6c6572206973206e6f7420746865206f776e6572600082015250565b7f546f6b656e206164647265737320697320746865207a65726f2061646472657360008201527f732e000000000000000000000000000000000000000000000000000000000000602082015250565b6111f881610fe6565b811461120357600080fd5b50565b61120f81610ff8565b811461121a57600080fd5b50565b6112268161100a565b811461123157600080fd5b50565b61123d81611036565b811461124857600080fd5b5056fea26469706673582212202f7c78367617161290244be0c4f2214764b8640d316b845c96d22094527d9ee864736f6c63430008070033",
  "immutableReferences": {},
  "source": "/// SPDX-License-Identifier: UNLICENSED\npragma solidity ^0.8.7;\n\ninterface IERC20 {\n    function totalSupply() external view returns (uint256);\n\n    function balanceOf(address account) external view returns (uint256);\n\n    function transfer(address recipient, uint256 amount)\n        external\n        returns (bool);\n\n    function allowance(address owner, address spender)\n        external\n        view\n        returns (uint256);\n\n    function approve(address spender, uint256 amount) external returns (bool);\n\n    function transferFrom(\n        address sender,\n        address recipient,\n        uint256 amount\n    ) external returns (bool);\n\n    event Transfer(address indexed from, address indexed to, uint256 value);\n    event Approval(\n        address indexed owner,\n        address indexed spender,\n        uint256 value\n    );\n}\n\nlibrary SafeMath {\n    function mul(uint256 a, uint256 b) internal pure returns (uint256) {\n        if (a == 0) {\n            return 0;\n        }\n\n        uint256 c = a * b;\n        require(c / a == b);\n\n        return c;\n    }\n\n    function div(uint256 a, uint256 b) internal pure returns (uint256) {\n        require(b > 0); // Solidity only automatically asserts when dividing by 0\n        uint256 c = a / b;\n        // assert(a == b * c + a % b); // There is no case in which this doesn't hold\n\n        return c;\n    }\n\n    function sub(uint256 a, uint256 b) internal pure returns (uint256) {\n        require(b <= a);\n        uint256 c = a - b;\n\n        return c;\n    }\n\n    function add(uint256 a, uint256 b) internal pure returns (uint256) {\n        uint256 c = a + b;\n        require(c >= a);\n\n        return c;\n    }\n\n    function mod(uint256 a, uint256 b) internal pure returns (uint256) {\n        require(b != 0);\n        return a % b;\n    }\n}\n\nabstract contract Context {\n    function _msgSender() internal view virtual returns (address) {\n        return msg.sender;\n    }\n\n    function _msgData() internal view virtual returns (bytes calldata) {\n        this; // silence state mutability warning without generating bytecode - see https://github.com/ethereum/solidity/issues/2691\n        return msg.data;\n    }\n}\n\nlibrary Address {\n    function isContract(address account) internal view returns (bool) {\n        uint256 size;\n        assembly {\n            size := extcodesize(account)\n        }\n        return size > 0;\n    }\n\n    function sendValue(address payable recipient, uint256 amount) internal {\n        require(\n            address(this).balance >= amount,\n            \"Address: insufficient balance\"\n        );\n\n        (bool success, ) = recipient.call{value: amount}(\"\");\n        require(\n            success,\n            \"Address: unable to send value, recipient may have reverted\"\n        );\n    }\n\n    function functionCall(address target, bytes memory data)\n        internal\n        returns (bytes memory)\n    {\n        return functionCall(target, data, \"Address: low-level call failed\");\n    }\n\n    function functionCall(\n        address target,\n        bytes memory data,\n        string memory errorMessage\n    ) internal returns (bytes memory) {\n        return functionCallWithValue(target, data, 0, errorMessage);\n    }\n\n    function functionCallWithValue(\n        address target,\n        bytes memory data,\n        uint256 value\n    ) internal returns (bytes memory) {\n        return\n            functionCallWithValue(\n                target,\n                data,\n                value,\n                \"Address: low-level call with value failed\"\n            );\n    }\n\n    function functionCallWithValue(\n        address target,\n        bytes memory data,\n        uint256 value,\n        string memory errorMessage\n    ) internal returns (bytes memory) {\n        require(\n            address(this).balance >= value,\n            \"Address: insufficient balance for call\"\n        );\n        require(isContract(target), \"Address: call to non-contract\");\n\n        (bool success, bytes memory returndata) = target.call{value: value}(\n            data\n        );\n        return _verifyCallResult(success, returndata, errorMessage);\n    }\n\n    function functionStaticCall(address target, bytes memory data)\n        internal\n        view\n        returns (bytes memory)\n    {\n        return\n            functionStaticCall(\n                target,\n                data,\n                \"Address: low-level static call failed\"\n            );\n    }\n\n    function functionStaticCall(\n        address target,\n        bytes memory data,\n        string memory errorMessage\n    ) internal view returns (bytes memory) {\n        require(isContract(target), \"Address: static call to non-contract\");\n\n        (bool success, bytes memory returndata) = target.staticcall(data);\n        return _verifyCallResult(success, returndata, errorMessage);\n    }\n\n    function functionDelegateCall(address target, bytes memory data)\n        internal\n        returns (bytes memory)\n    {\n        return\n            functionDelegateCall(\n                target,\n                data,\n                \"Address: low-level delegate call failed\"\n            );\n    }\n\n    function functionDelegateCall(\n        address target,\n        bytes memory data,\n        string memory errorMessage\n    ) internal returns (bytes memory) {\n        require(isContract(target), \"Address: delegate call to non-contract\");\n\n        (bool success, bytes memory returndata) = target.delegatecall(data);\n        return _verifyCallResult(success, returndata, errorMessage);\n    }\n\n    function _verifyCallResult(\n        bool success,\n        bytes memory returndata,\n        string memory errorMessage\n    ) private pure returns (bytes memory) {\n        if (success) {\n            return returndata;\n        } else {\n            if (returndata.length > 0) {\n                assembly {\n                    let returndata_size := mload(returndata)\n                    revert(add(32, returndata), returndata_size)\n                }\n            } else {\n                revert(errorMessage);\n            }\n        }\n    }\n}\n\nabstract contract Ownable is Context {\n    address private _owner;\n\n    event OwnershipTransferred(\n        address indexed previousOwner,\n        address indexed newOwner\n    );\n\n    constructor() {\n        _owner = msg.sender;\n        emit OwnershipTransferred(address(0), _owner);\n    }\n\n    function owner() public view virtual returns (address) {\n        return _owner;\n    }\n\n    modifier onlyOwner() {\n        require(owner() == _msgSender(), \"Ownable: caller is not the owner\");\n        _;\n    }\n\n    function transferOwnership(address newOwner) public virtual onlyOwner {\n        require(\n            newOwner != address(0),\n            \"Ownable: new owner is the zero address\"\n        );\n        emit OwnershipTransferred(_owner, newOwner);\n        _owner = newOwner;\n    }\n}\n\ncontract Crash is Ownable {\n    using SafeMath for uint256;\n    using Address for address;\n\n    address payable public houseFeeWallet;\n    address payable public gameWallet;\n    address public gameToken;\n    uint256 houseFee = 1;\n\n    mapping(address => uint256) public betAmount;\n    address[] public players;\n\n    constructor() {\n        houseFeeWallet = payable(0x4f2c954ACAd386547c64C6b36E569c0F01765E62);\n        gameWallet = payable(0x4854Ebc0E6a0e81555d220f2Fc1FD4cc775397D9);\n    }\n\n    function placeBet(uint256 amount, address token) public {\n        //require(token == gameToken, \"We accept only $ITM.\");\n        uint256 amountToGameWallet = amount\n            .mul((1000 - (houseFee.mul(10))))\n            .div(1000);\n        uint256 amountToHouseFee = amount - amountToGameWallet;\n        betAmount[msg.sender] = amount;\n\n        IERC20(token).transferFrom(msg.sender, gameWallet, amountToGameWallet);\n\n        IERC20(token).transferFrom(\n            msg.sender,\n            houseFeeWallet,\n            amountToHouseFee\n        );\n    }\n\n    function getBetAmount(address account) external view returns (uint256) {\n        return betAmount[account];\n    }\n\n    function setGameWalletAddress(address payable wallet) external onlyOwner {\n        require(wallet != address(0), \"New game wallet is the zero address.\");\n        gameWallet = wallet;\n    }\n\n    function setHouseFeeWalletAddress(address payable wallet)\n        external\n        onlyOwner\n    {\n        require(wallet != address(0), \"New game wallet is the zero address.\");\n        houseFeeWallet = wallet;\n    }\n\n    function setHouseFee(uint256 feePercentage) external onlyOwner {\n        houseFee = feePercentage;\n    }\n\n    function setGameToken(address tokenAddress) external onlyOwner {\n        require(\n            tokenAddress != address(0),\n            \"Token address is the zero address.\"\n        );\n        gameToken = tokenAddress;\n    }\n}\n",
  "sourcePath": "/home/levi/crash/client/contracts/Crash.sol",
  "compiler": {
    "name": "solc",
    "version": "0.8.7+commit.e28d00a7.Emscripten.clang"
  },
  "schemaVersion": "3.4.1",
  "updatedAt": "2021-08-23T13:50:53.473Z",
  "networkType": "ethereum",
  "devdoc": {
    "kind": "dev",
    "methods": {},
    "version": 1
  },
  "userdoc": {
    "kind": "user",
    "methods": {},
    "version": 1
  }
}